:400000000080002011000000990400009904000008B5044B1A6803F53F5302331A6000F043FA00BFFA46004010B5054C237833B9044B13B10448AFF300800123237010BD00
:400040004081FF1F00000000E80B0000084B10B51BB108490848AFF300800848036803B910BD074B002BFBD0BDE81040184700BF000000004481FF1FE80B0000C880FF1F2C
:400080000000000008B562B600F0FAFA00F06CFB042000F0CFFA042000F040FB00F034FC00F040FC002000F045FC00F00DFD00F019FD002000F01EFD00F068FB10B97F2081
:4000C00000F014FB00F062FB012802D1BE2000F00DFB00F05BFB022802D17F2000F006FB00F054FB032802D13F2000F0FFFA00F04DFB042802D1FF2000F0F8FA00F046FB21
:40010000052802D1FF2000F0F1FA00F03FFB062802D1002000F0EAFA00F038FB072802D1002000F0E3FA00F0BDFA10B9BE2000F069FA00F0B7FA012802D17F2000F062FA6B
:4001400000F0B0FA022802D13F2000F05BFA00F0A9FA032802D17F2000F054FA00F0A2FA042802D1FF2000F04DFA00F09BFA052802D1002000F046FA00F094FA062802D1A1
:40018000002000F03FFA00F08DFA072894D1FF2000F038FA90E700BFFEE700BFF0B40022174611E050F82760F3B226F0FF0608E001EB420511F812406D78A5550132013B69
:4001C000DBB2002BF4D10137172FEBD9F0BC704708B50A46002100F0FEFC08BDF8B5234B1B78DBB2224E3478E4B2224F3D78EDB203F00701204A11701B090132137044F05A
:400200000303337045F003033B7080211B4B19704023A2F243721370C0201132107002F2C472137002321370063213700232137001221348027008300270124A137020223C
:4002400090300270053001700F490A70052218310A7004310A700D4A13700A2000F080F93D70347044220A4B1A70F8BDCF010049F8460040F94600406E5800401C510040BA
:400280008B5A0040205B00402B5B0040585B00407658004008B500F093FC08BD38B545F6BF522D4B1A80182202331A7008222B492B48FFF7EFFF02222A4B1A7008224FF0D1
:4002C00040231A70032103F500731970264B1B78DBB226490B70264B1A8041F25122023B1A80002419250CE0224B1B7803F0010343EA440404F003044FF4F07000F024FC8E
:40030000013D0DB1032CEFD115B90320FFF744FF194B4FF480721A8007221A70002217490A704820023108701A700222033B1A7004220A331A70124A137843F001031370AF
:40034000013A137843F003031370013A137843F08003137038BD00BF8040004050020048004100400043004008010049A146004022420040254200400440004006400040DC
:40038000A243004038B572B6304A137843F00403137000240CE02E4D630019194A0011462A44084691882858FFF712FF0134E4B2062CF0D927494FF09040FFF7EFFE264A8C
:4003C000137843F0020313701032137843F002031370224C237843F040032370A2F58632513A137843F01003137008221C491D48FFF750FF08221C491C48FFF74BFF082259
:400400001B491C48FFF746FF08221B491B48FFF741FF08221A491B48FFF73CFF1A4A137843F008031370194D61232B70FFF736FF81232B700122164B1A70FFF7CFFE0E22D1
:4004400021461448FFF726FF38BD00BFE8460040EC0B00006000004803500140A0430040280200480251004030020048C251004038020048125100404002004822510040F2
:400480004802004832510040224300400048004004000840B043004008B500F065FB03680C2B00D1FEE7FEE708B5104E104D16E029686B68AC68002204E051F8040B43F872
:4004C000040B0432A242F8D1E868002203E0002143F8041B04328242F9D11035013E002EE6D100F047FBFFF7CDFDFEE7010000003C0C000008B5104A104B1A60104A13682C
:4005000043F40073136000230AE0032B03D80D4A52F8231000E00C490C4A42F8231001332F2BF2D90A4B1A780A4B1A70074A0A4B1A60FFF727FF08BD0004FA050CED00E0C0
:4005400014ED00E000000000990400000080FF1FBC760040C080FF1F08ED00E001BE704708B5034B1B7A00FB03F000F0EDFA08BDCC80FF1F70B504460E46074B1D681F28CF
:4005800002D90020FFF7EAFF04F01F04103455F8240045F8246070BD08ED00E038B504460D46072902D90020FFF7D8FF1F2C02D90020FFF7D3FF04F01F0000F1604000F5A9
:4005C00064406D01EDB2057038BD00BF054A137843F0020313701032137843F002031370704700BFA8430040054B1A7802F0FD021A701A7800F0020010431870704700BF31
:4006000024580040014B1870704700BF815B0040064B1B78C3F3810303F19243063393F83031DBB2024A1370704700BF245800400946004008B5064B1A7802F0F3021A705E
:400640001A7800F00C0010431870FFF7E1FF08BD2458004010B50024074B1C7001331C70064A137843F0080313700420FFF7E2FF2046FFF7B9FF10BD245800408F5A0040D6
:4006800008B5074B1B7823B9FFF7E4FF0122044B1A70FFF79BFF6420FFF7B4FF08BD00BF5C81FF1F024B187800F00700704700BF21510040054A137843F0040313701032D6
:4006C000137843F004031370704700BFA8430040054B1A7802F0FD021A701A7800F0020010431870704700BF28580040014B1870704700BF825B0040064B1B78C3F381039A
:4007000003F19243063393F82831DBB2024A1370704700BF285800400A46004008B5064B1A7802F0F3021A701A7800F00C0010431870FFF7E1FF08BD2858004010B50024F3
:40074000074B1C7001331C70064A137843F0080313700420FFF7E2FF2046FFF7B9FF10BD28580040975A004008B5074B1B7823B9FFF7E4FF0122044B1A70FFF79BFF64200B
:40078000FFF7B4FF08BD00BF5D81FF1F024B1878C0F3C200704700BF2151004008B50A280FD00C2802D0082806D102E04FF4805209E04FF4807206E00020FFF7CFFE0022BB
:4007C00001E04FF480620021094B198042F2107303FB02F303F6C413064A82FB0302DB17C3EBE223044A1360044B198008BD00BF6481FF1FAD8BDB686881FF1F6281FF1F41
:4008000010B500F0A9F904461E4A137843F0010313701032137843F0010313701A3A137843F0020313701032137843F00203137002F5AA521232137843F00303137004221D
:40084000114B1A70013B1A7802F0BF021A701A7842F003021A700822053B1A700222A3F597530C3B1A70094A137843F0080313700A20FFF775FE0122054B1A60204600F054
:400880006FF910BDAB43004006590040275B004080E200E010B504460A280DD00C2802D0082804D101E0C42207E0442205E00020FFF754FEC42200E08422034B1A702046FE
:4008C000FFF76CFF10BD00BF0259004008B5102000F024F907210020FFF760FE07490020FFF748FE064A137843F0060313700C20FFF7D0FF0022034B1A8008BD5909000072
:40090000015900406081FF1F08B5054B1B7823B9FFF7DCFF0122024B1A70FFF771FF08BD5E81FF1F024A137843F00103137070470059004010B5074B1B7813F0010401D14A
:400940000028F8D024B10120FFF70AFE014B1B78204610BD01590040704700BF08B50A280FD00C2802D0082806D102E04FF4805209E04FF4807206E00020FFF7EFFD002277
:4009800001E04FF480620021094B198042F2107303FB02F303F6C413064A82FB0302DB17C3EBE223044A1360044B198008BD00BF6E81FF1FAD8BDB687081FF1F6C81FF1F63
:4009C00038B500F0C9F804461E4A137843F0020313701032137843F0020313701A3A137843F0010313701032137843F00103137002F5AA521A32137843F00303137004220D
:400A0000114B1A70013B1A7802F0BF021A701A7842F003021A700822053B1A700225A3F59753123B1D70094A137843F0080313700A20FFF795FD064B1D60204600F090F8FE
:400A400038BD00BFAB4300400E5900402F5B004080E200E010B504460A280DD00C2802D0082804D101E0C42207E0442205E00020FFF774FDC42200E08422034B1A7020468E
:400A8000FFF76CFF10BD00BF0A59004008B5102000F04EF807210120FFF780FD07490120FFF768FD064A137843F0060313700C20FFF7D0FF0022034B1A8008BD190B00007D
:400AC000095900407481FF1F08B5054B1B7823B9FFF7DCFF0122024B1A70FFF771FF08BD5F81FF1F024A137843F00103137070470859004010B5074B1B7813F0010401D164
:400B00000028F8D024B10120FFF72AFD014B1B78204610BD09590040704700BF034B1A7800F0F80010431870704700BF06410040034B1A7800F0F80010431870704700BFCF
:400B400002410040000000000230800803D000BF01380046FCD17047EFF3108072B6704780F31088704700BF014B1868704700BF3C81FF1F0E4B70B51E460E4C0025E41A55
:400B8000A410A54204D056F8253098470135F8E700F042F8084B094C1E46E41AA4100025A54204D056F8253098470135F8E770BD240C0000240C0000240C00002C0C0000DB
:400BC00010B5431E0A44914204D011F8014B03F8014FF8E710BD03460244934202D003F8011BFAE77047000000000000405100403000F051004010000000014000100014B2
:400C00000140000800400140000A004C014000020050014020004300F8B500BFF8BC08BC9E4670474D000000F5040000F8B500BFF8BC08BC9E46704729000000500C000094
:400C4000C880FF1F780000003800000000000000000000000000E02EC05D00001800000000366E010000000000000000000000000000000000000000000000000000000076
:400C800000000000160C0000000000000000000000000000000000000000000000000000000000000000000000000000000000000000000000000000000000000000000012
:400CC00000000000DC80FF1F00000000000000000000000000000000000000000000000000000000000000000000000000000000000000000000000000000000000000007A
:400D000000000000000000000000000000000000000000000000000000000000000000000000000000000000000000000000000000000000000000000000000000000000B3
:400D40000000000000000000000000000000000000000000000000000000000000000000000000000000000000000000000000000000000000000000000000000000000073
:400D80000000000000000000000000000000000000000000000000000000000000000000000000000000000000000000000000000000000000000000000000000000000033
:400DC00000000000000000000000000000000000000000000000000000000000000000000000000000000000000000000000000000000000000000000000000000000000F3
:020000040003F7
:0200000480007A
:4000000007520040025A0040015B004005050140270601401F07014004090140020B0140041501401E16014018170140021B01400340014006410140044201400743014078
:400040000A4501400A460140094701400648014009490140064C0140054D014001510140008001C0108D11941804190460088F0197012721872089028E10E408E62010523B
:400080001229150116361702180419061A0A1B011E0526562A562D073004326033043418350336033AA83E01580459045C885F01860192029E049F02A701B004B102B201C4
:4000C000B402B701D80AD904DC88DF01010809820EAA1728180419021A201EAA1F012182272829082F01318037287B227F0285088C048D029620A502A720C004C2F9C460B7
:40010000CA12CC68DE1AE604EE04E040E440E604EE04E040E4088B02A702B120E480008002400440068014011501162618381A031C071D011E182402260D28022A3431015A
:4001400032403480363F3E50580459045C885F019A01B201D804DC08DF010504074009200E2A172819081D841F202740350437407B027F0285809B289D08A215A722A9804F
:40018000C030C2E2C460CC50DE18E480EE8033203510CC30632266109D10A720D640D8C08A109D109E10A731811087019D10A711AB20E630EE2033205284578362046302EA
:4001C0006404CC08D406D606D8031B04332087208F809C04A680A7A2C608CC08E00283808E808F029C04A680A702AB04E002E40226408404AB10C820E640EE800B805E8061
:4002000074048B40A004A240C210D620DE200B101F809C04A780C208C60188049C04B310E401EE01000F000000E0E000E00014000008080008000000100B0B0000008000D9
:4002400000BFBF00BF004000100404000400280001001801010018010000000000000000000000000000000000000000000000000000000000000000000000000000000089
:40028000000000000000000000000000000000000000000000000000000000000000000000000000000000000000000000000000000000000000000000000000000000003E
:4002C00000000000000000000000000000000000000000000000000000000000000000000000000000000000000000000000000000000000000000000000000000000000FE
:4003000000000000000000000000000000000000000000000000000000000000000000000000000000000000000000000000000000000000000000000000000000000000BD
:40034000000000000000000000000000000000000000000000000000000000000000000000000000000000000000000000000000000000000000000000000000000000007D
:0200000490006A
:0400000000004005B7
:0200000490105A
:04000000BC90ACAF55
:0200000490303A
:02000000F46C9E
:0200000490402A
:4000000000000000000000000000000000000000000000000000000000000000000000000000000000000000000000000000000000000000000000000000000000000000C0
:400040000000000000000000000000000000000000000000000000000000000000000000000000000000000000000000000000000000000000000000000000000000000080
:400080000000000000000000000000000000000000000000000000000000000000000000000000000000000000000000000000000000000000000000000000000000000040
:4000C0000000000000000000000000000000000000000000000000000000000000000000000000000000000000000000000000000000000000000000000000000000000000
:0200000490501A
:0C00000000012E16106900012E1B04D513
:00000001FF